:020000040800F2
:10000000283300209D010008214A000871400008A3
:100010001D4A0008B51800086556000800000000D9
:1000200000000000000000000000000005010008C2
:10003000B918000800000000490100085B4F0008E3
:10004000B7010008B7010008B7010008B7010008B0
:10005000B7010008B7010008B7010008B7010008A0
:10006000B7010008B7010008B7010008B701000890
:10007000B7010008B7010008B7010008B701000880
:10008000B7010008B7010008B7010008B701000870
:10009000B7010008B7010008B7010008B701000860
:1000A000B7010008D94F0008B7010008B7010008E0
:1000B000B7010008B7010008B7010008B701000840
:1000C000B7010008B7010008B7010008B701000830
:1000D000B70100084556000855560008B70100084A
:1000E000B7010008B7010008B7010008DFF810D019
:1000F00000F084FD0048004775710008AFF30080F0
:1001000028330020224B19680868B0E8F00F80F30C
:100110000988BFF36F8F4FF0000080F311884EF015
:100120000D0E70470000000006480068006880F36C
:10013000088862B661B6BFF34F8FBFF36F8F00DFE1
:1001400000BF00BF08ED00E0EFF30980BFF36F8F41
:100150000F4B1A6820E9F00F106008B54FF05000FF
:1001600080F31188BFF34F8FBFF36F8F09F006FE46
:100170004FF0000080F31188BDE808401968086856
:10018000B0E8F00F80F30988BFF36F8F704700BFAE
:1001900014000020EFF305807047000006488047F8
:1001A00006480047FEE7FEE7FEE7FEE7FEE7FEE75C
:1001B000FEE7FEE7FEE7FEE7D74F0008ED00000888
:1001C0002DE9F05F0546002092469B46884606468C
:1001D000814640241BE0284641464746224600F01F
:1001E00020F853465A46C01A914110D3114618467A
:1001F000224600F0CBFB2D1A67EB01084F46224642
:100200000120002100F0C2FB17EB00094E41201E27
:10021000A4F10104DFDC484631462A464346BDE8E6
:10022000F09F202A04DB203A21FA02F000217047D7
:1002300021FA02F3D040C2F120029140084319464E
:10024000704740EA01039B0703D009E008C9121F69
:1002500008C0042AFAD203E011F8013B00F8013B80
:10026000521EF9D27047D2B201E000F8012B491EAC
:10027000FBD270470022F6E710B513460A46044643
:100280001946FFF7F0FF204610BD10B5002200E030
:10029000521C835C8C5CA34201D1002BF8D1D8B2F4
:1002A000E1B2401A10BD000070B500B91068002519
:1002B00012E00B4602E0A64203D05B1C1C78002C27
:1002C000F9D1E3B22B4305D02CB125B1002100F8C0
:1002D000011B04E00546401C0678002EE9D11060A1
:1002E000284670BD004ADFE7A40100200022CBB2FF
:1002F0000178994200D10246401C0029F8D11046ED
:1003000070472DE9F04791460F4680460446002687
:1003100014F8015B2DB100F05BFB0068405DC00785
:10032000F6D12B2D02D02D2D18D0641E4A46394609
:10033000204600F05AFB27B13968A14201D1C7F825
:10034000008071054FF002040BD54042002803DD08
:1003500005F0CAF90460A007BDE8F08746F480669E
:10036000E4E70028F8DA05F0BFF904606FF0004018
:10037000F2E7F0B480EA0102D40F4200B2EB410F81
:1003800002D20246084611464A0042D0C30DDDB2F1
:10039000C1F3C752AD1A202D35DAC1F3160141F46D
:1003A000000204B15242C5F1200602FA06F12A41C8
:1003B0001044B3EBD05F23D0C4B1012DA0EBC350E8
:1003C00009DCF0BC4FF0004202EAC352DBB200F598
:1003D000000000F06FBB400000F1807000EBC350E4
:1003E000A0F1807040EAD170490009E0490841EA73
:1003F000C071A0EBC35000F50000400800EBC350F3
:10040000F0BC00F04EBB6142012202EB4101001B37
:10041000F6E7F0BC704781F00041AAE780F00040A9
:10042000A7E780EA010210B502F00043400022D0A5
:100430004A001FD0010E01EB1261C0F35600C2F357
:10044000560240F4000042F40002A0FB0220000427
:100450007F39140400D0401C50EA124001D44000FF
:10046000491EC2B20C0604EBD010401C4008802A82
:1004700002D003E0002010BD20F00100002900DAC6
:100480000020184310BD30B480EA010202F000459C
:1004900030F0004221F0004013D090B1C30DD40DD4
:1004A000C2F31601C0F31600E41A41F4000140F44F
:1004B00000027D34914201D3641C00E04900002C0D
:1004C00002DA30BC002070474FF400000023914254
:1004D00001D3891A034340084FEA4101F7D151B1D2
:1004E000914202D14FF0004105E002D24FF00101EC
:1004F00001E06FF0010103EBC450284430BC00F070
:10050000D0BA2DE9FE4F804681EA0300C00F0C46A9
:10051000009021F0004123F00045B8EB0200A94112
:1005200005D24046214690461C460B46024623F023
:100530000040104347D0270DC7F30A00C3F30A5108
:100540000290401A019040286BDAC3F3130040F484
:10055000801B0098924620B10023D2EB030A63EB84
:100560000B0B01985946C0F14002504600F00EFABC
:1005700006460D4650465946019A00F016FA10EB11
:1005800008006141002487EA115284EAE7731A43A4
:1005900040D0009A62B3019A012A4FEA075215DC53
:1005A000001B61EB02014FF0004202EA0752CDE965
:1005B0000042001C41F5801132462B4600F0B7FA8C
:1005C00003B0BDE8F08F40462146F9E7001B61EB20
:1005D0000201001C41F5801300185B412018A2F5B0
:1005E000001747EB030140EAD570B6196D4111E0E1
:1005F0006D084FEA360645EAC0754FEA0752001B00
:1006000061EB0201001C41F5801149084FEA3000FE
:100610000019514132462B4603B0BDE8F04F00F0BF
:1006200077BA0098012240000023D0EB020263EB6E
:10063000E073009821464FEAE074B8EB000061EBEC
:100640000401E9E783F000435BE781F0004158E7EC
:100650002DE9FE4F81EA030404F0004421F000413B
:1006600000944FF0000B23F0004350EA01045ED0E9
:1006700052EA03045BD0C3F30A54C1F30A552C4475
:10068000A4F2F3340194A0FB0254C1F3130141F42A
:100690008011C3F3130343F4801301FB024400FBF6
:1006A000034E840A970A44EA815447EA8357A4FB1D
:1006B000076802958D0A05FB07854FEA932C04FB1A
:1006C0000C542705029D4FEA065847EA1637B5EB4A
:1006D00008056EEB070C870E920E47EA811742EA77
:1006E0008312A7FB0201B6EB0B0164EB00042B0D98
:1006F00043EA0C335E1844EB1C50DA465146E7FBE4
:100700000201C5F313044FEA0B3343EA14534FEAD3
:100710000432019C43EA0603A4F10C040294009CF9
:10072000CDE900B400F003FA03B0BDE8F08F00207B
:100730000146F9E72DE9F04D81EA030404F0004B8E
:1007400021F0004514464FF0000A23F0004150EA22
:10075000050220D054EA01021DD0C5F30A57024613
:10076000C5F31303C1F31300C1F30A5640F4801517
:1007700043F48013A7EB0608101BD64608F2FD3899
:1007800073EB050002D308F1010801E092185B4108
:10079000B8F1000F03DA00200146BDE8F08D00201B
:1007A0004FF48011064684460EE0171B73EB0507D5
:1007B00005D3121B63EB050306434CEA010C490801
:1007C0004FEA300092185B4150EA0107EDD152EA3E
:1007D000030012D082EA040083EA0501084305D031
:1007E000101BAB4106D20122002306E000224FF08D
:1007F000004302E06FF0010253101AEB06004CEBCD
:10080000085110EB0A0041EB0B01BDE8F04D00F080
:100810007FB9C10F80EAE0700844CA07962300211F
:1008200000F048B90EB5C10F80EAE0700844CA076D
:10083000002140F233438DE80E000A460B4600F0DB
:1008400076F903B000BD00F0004220F00040C10D79
:10085000C0F3160040F400007F2901DA0020704741
:10086000962903DCC1F19601C84001E09639884021
:10087000002AF4D040427047C1F30A52C1F3130179
:1008800040F2FF3341F480119A4202DA002001461F
:10089000704740F233439A42A2F2334202DC5242A2
:1008A000FFF7BFBC00F072B800F0004230F000402B
:1008B0000AD0C10D01F56071C0F3160042EA015182
:1008C000C2084007114370470020014670470000EE
:1008D00030B5041E71F1000404DB4FF000444042C7
:1008E00064EB0101141E73F1000405DB1C464FF09C
:1008F0000043524263EB04038B4208BF824230BD87
:1009000001F0004330B421F0004150EA010206D06A
:100910000A0DA2F56072C1F31301002A02DC30BC9B
:1009200000207047440F44EAC104C100E01830BC05
:1009300000EBC25000F0B5B8002801DBC0F1004068
:10094000002901DBC1F1004181427047002801DB31
:10095000C0F10040002901DBC1F10041884270472D
:1009600030B50B46014600202022012409E021FA7F
:1009700002F59D4205D303FA02F5491B04FA02F57C
:100980002844151EA2F10102F1DC30BD202A04DB4F
:10099000203A00FA02F1002070479140C2F1200392
:1009A00020FA03F3194390407047202A06DBCB1747
:1009B000203A41FA02F043EAE07306E041FA02F31A
:1009C000D040C2F120029140084319467047000010
:1009D00000487047ACB7000810B50446FFF7F8FFB1
:1009E0000068005D00F0010010BD2DE9F05F824657
:1009F0000078002715468B460AF10104B9463028D5
:100A000001D09DB113E014F8010B0127782803D021
:100A1000582801D045B10AE00DB1102D07D10027AB
:100A2000102514F8010B02E0082500E00A25002635
:100A3000B0460EE005FB080005FB06F1012701EBBF
:100A400010461FFA80F8B6F5803F00D3B94614F877
:100A5000010B294600F0E4F80028EBDABBF1000FA7
:100A600005D00FB1641E00E05446CBF80040B9F148
:100A7000000F06D004F038FE02210160C81EBDE858
:100A8000F09F48EA0640FAE77CB50023CDE9003341
:100A90000546684600F0EDF86946284604F08EFEEB
:100AA0007CBD0029A8BF7047401C490008BF20F04A
:100AB0000100704710B4B0FA80FC00FA0CF050EA64
:100AC000010404BF10BC704749B1CCF1200421FAE5
:100AD00004F411FA0CF118BF012121430843A3EBE0
:100AE0000C01CB1D4FEA00614FEA102042BF0020ED
:100AF00010BC704700EBC35010440029A4BF10BCC9
:100B00007047401C490008BF20F0010010BC70472E
:100B100010B5141E73F1000408DA401C41F1000105
:100B200092185B411A4301D120F0010010BD2DE95C
:100B3000F04D92469B4611B1B1FA81F202E0B0FA53
:100B400080F220329046FFF721FF04460F4640EA2C
:100B50000A0041EA0B0153465A46084313D0114696
:100B600053EA010019D0C8F140025046FFF759FB83
:100B700005460E46504659464246FFF707FF0843D2
:100B800005D0012004E020463946BDE8F08D002064
:100B9000054346EAE0762C4337430A986305E40AA6
:100BA000A0EB08000022FD0A44EA47540A3002D5AF
:100BB00000200146E9E7010510196941DDE9084512
:100BC00000196941BDE8F04DA2E7000030B5041EF0
:100BD00071F1000404DB4FF00044404264EB01017A
:100BE000141E73F1000405DB1C464FF00043524213
:100BF00063EB0403994208BF904230BD064C074D99
:100C000006E0E06840F0010394E8070098471034DC
:100C1000AC42F6D3FFF76EFABCB70008DCB70008A9
:100C20003A2800D2303820F02002412A01D3A2F124
:100C30003700884201D34FF0FF3070470FB40023D4
:100C400000B589B00CA900910B996FF00042CB6000
:100C50001E4B06931E4B07930423CDE901321D4A18
:100C6000089202466B46002000F0E2F809B05DF8F9
:100C700014FB70B586B006464FF0FF300091CDE909
:100C80000101002015460C4604903246694604A82E
:100C9000FFF7D4FF02460498211825B108B1084691
:100CA00000E020462860049800280DD0002A02DDCC
:100CB0000098884208D0081B0094CDE90104324610
:100CC000694604A8FFF7BAFF06B070BD69100008B6
:100CD00087100008D909000870B521F000430343CC
:100CE0000CD0C1F30A550024D5EB040564EB0403D2
:100CF000D617AD1AB34102DB0020014670BD2018A3
:100D000041EB025170BD00002DE9FF4F087883B020
:100D10009946FF2805D0491C2D2804D00024002026
:100D200008E000200BE00124F9E700EB800003EB72
:100D30004000491C0B78FF2BF7D104B1404200233F
:100D40000293147819461D462D2C01D02B2C04D16A
:100D5000521C2D2C13D000240294AA461478FF2C88
:100D60000FD00A25A3FB057801FB05814FF0000C8D
:100D700003FB0C11521CE3194AEB0101EEE70124BD
:100D8000EAE7814453EA010002D019F5C87F06DA88
:100D900003980021C0E9001107B0BDE8F08F0025DD
:100DA000AE4E2F46DFF8B882184600F07FF9CDE945
:100DB0000001B9F1000002DAC9F1000400E00446C4
:100DC0000023A74A1AEB030B42EB045A12E0E00798
:100DD00007D02A46334638464146FFF739FC0746D6
:100DE00088462A46334610461946FFF731FC054629
:100DF0000E466410002CEAD1DDE90001B9F1000FC4
:100E00005A46534606DAFFF795FC3A464346FFF743
:100E100091FC05E0FFF71CFC3A464346FFF718FC3F
:100E2000029A0AB181F00041039AC2E90001B3E7D6
:100E30002DE9FF4F1F468DB0D7E901464FF0FF382F
:100E40002E2045464FF000090B90B9696D1C0E9895
:100E50008847396A824688470028F6D1BAF1FF3FB1
:100E60000AD024F4D064002E11DDBAF12B0F08D083
:100E7000BAF12D0F0BD102E0404611B08DE744F4DA
:100E80008064B9696D1C0E9888478246761E694653
:100E9000600501D52D2000E02B208DF8000001F128
:100EA000010B0DF1200809E0B9696D1C0E98884707
:100EB00082460F9844F40074761E0560002E02DD11
:100EC000BAF1300FF0D00B998A453ED144F080043E
:100ED00006E00F99681CA9F1010944F40074086048
:100EE000B9696D1C761E0E98884782463028F0D06E
:100EF0002BE00B998A4505D1200603D444F08004E9
:100F0000761E18E0504604F097FD08B30DF113016A
:100F1000761E44F400748B4508D2AAF130000BF819
:100F2000010B200607D5A9F1010003E0200602D439
:100F300009F101008146A00502D50F99681C0860DF
:100F4000B9696D1C0E9888478246002ED1DC53E0AB
:100F5000002E51DDBAF1650F02D0BAF1450F4BD129
:100F6000A00549D5B9696D1C24F44074761E0E980D
:100F700088478246002E0CDD2B2804D0BAF12D0FB5
:100F800007D144F48074B9696D1C0E988847824675
:100F9000761EE00501D52D2100E02B2108F8011B6C
:100FA000CDF82C8021E00DF12901761E44F4007467
:100FB00088450CD2AAF1300010F0FF0088F800003C
:100FC00002D10B99884509D908F1010806E0E0052E
:100FD00001D5244801E042F20F708146B9696D1CC9
:100FE0000E98884782460F980560002E04DD504613
:100FF00004F022FD0028D6D1F9690E988847FF2019
:101000008BF8000088F800000020069007904B46FF
:101010006A4608A906A8FFF777FEA00502D46FF07C
:1010200001002AE714F0240F0AD0E00714D1DDE90B
:1010300006123868031D3B600068C0E900120BE02F
:10104000DDE90601FFF75CFC0146E00704D13868E2
:10105000021D3A600068016028460EE70000144057
:101060000000F03FF1D8FFFF426842B1016811F87B
:10107000013B23B1521EC0E90012184670470121FE
:10108000C160881E704742685AB1C368016843B99D
:1010900083688B4205D0491E521CC0E90012002013
:1010A00070474FF0FF307047002070470EB540F298
:1010B000334202920022CDE900221346FFF737FDAA
:1010C00003B000BD70B58C1810F8015B15F0070374
:1010D00001D110F8013B2A1106D110F8012B03E0D1
:1010E00010F8016B01F8016B5B1EF9D12B0705D4D9
:1010F0000023521E0DD401F8013BFAE710F8013B22
:10110000CB1A921C03E013F8015B01F8015B521E3D
:10111000F9D5A142D8D3002070BD00007CB503F002
:1011200007FD05F0EBFB05F0C5FA06F03FF805F00A
:101130004FFB05F035FB08F069FE06465C21F9A07F
:10114000FFF7D4F828B15C21F6A0FFF7CFF8401CD8
:101150000BE02F21F3A0FFF7C9F828B12F21F1A050
:10116000FFF7C4F8401C00E0EEA0054633463D22E0
:101170002946F2A004F078FA002001210346082253
:10118000CDE90010F7A1FA4809F05EFB0446012CF6
:101190001DD15C21E3A0FFF7A9F828B15C21E1A0F3
:1011A000FFF7A4F8401C0BE02F21DEA0FFF79EF80C
:1011B00028B12F21DBA0FFF799F8401C00E0D9A04F
:1011C000054643222946EBA004F04EFA1CE05C21C0
:1011D000D4A0FFF78BF828B15C21D2A0FFF786F8E6
:1011E000401C0BE02F21CFA0FFF780F828B12F2162
:1011F000CCA0FFF77BF8401C00E0CAA005464722C0
:101200002946E4A004F030FA002002210346C0225F
:10121000CDE90010E7A1EA4809F016FB0446012CCD
:101220001DD15C21BFA0FFF761F828B15C21BDA0F2
:10123000FFF75CF8401C0BE02F21BAA0FFF756F82F
:1012400028B12F21B7A0FFF751F8401C00E0B5A04E
:1012500005464E222946DBA004F006FA1CE05C217C
:10126000B0A0FFF743F828B15C21AEA0FFF73EF82D
:10127000401C0BE02F21ABA0FFF738F828B12F213D
:10128000A8A0FFF733F8401C00E0A6A005465222B4
:101290002946D5A004F0E8F9002005210346C02224
:1012A000CDE90010D9A1DD4809F0CEFA0446012CA1
:1012B0001DD15C219BA0FFF719F828B15C2199A0F2
:1012C000FFF714F8401C0BE02F2196A0FFF70EF853
:1012D00028B12F2193A0FFF709F8401C00E091A04E
:1012E000054658222946CEA004F0BEF91CE05C2138
:1012F0008CA0FEF7FBFF28B15C218AA0FEF7F6FF69
:10130000401C0BE02F2187A0FEF7F0FF28B12F2112
:1013100084A0FEF7EBFF401C00E082A005465C22A3
:101320002946CAA004F0A0F9002002210346C022E9
:10133000CDE90010D0A1D54809F086FA0446012C69
:101340001DD15C2177A0FEF7D1FF28B15C2175A0EB
:10135000FEF7CCFF401C0BE02F2172A0FEF7C6FF6A
:1013600028B12F216FA0FEF7C1FF401C00E06DA047
:10137000054662222946C6A004F076F91CE05C21ED
:1013800068A0FEF7B3FF28B15C2166A0FEF7AEFFB0
:10139000401C0BE02F2163A0FEF7A8FF28B12F21EE
:1013A00060A0FEF7A3FF401C00E05EA00546662299
:1013B0002946C2A004F058F9002003210346C022A8
:1013C000CDE90010C8A1CB4809F03EFA0446012C33
:1013D0001DD15C2153A0FEF789FF28B15C2151A0EB
:1013E000FEF784FF401C0BE02F214EA0FEF77EFF8E
:1013F00028B12F214BA0FEF779FF401C00E049A047
:1014000005466C222946BCA004F02EF91CE05C21A4
:1014100044A0FEF76BFF28B15C2142A0FEF766FFF7
:10142000401C0BE02F213FA0FEF760FF28B12F21C9
:101430003CA0FEF75BFF401C00E03AA0054670228E
:101440002946B5A004F010F9002004210346C0226B
:10145000CDE90010B8A1BC4809F0F6F90446012C0A
:101460001DD15C212FA0FEF741FF28B15C212DA0EA
:10147000FEF73CFF401C0BE02F212AA0FEF736FFB1
:1014800028B12F2127A0FEF731FF401C00E025A046
:10149000054675222946ADA004F0E6F81CE05C2163
:1014A00020A0FEF723FF28B15C211EA0FEF71EFF3F
:1014B000401C0BE02F211BA0FEF718FF28B12F21A5
:1014C00018A0FEF713FF401C00E016A00546792285
:1014D0002946A8A004F0C8F8002001210346C8222C
:1014E000CDE90010ADA1B04809F0AEF90446012CD9
:1014F00016D15C210BA0FEF7F9FE28B15C2109A0F2
:10150000FEF7F4FE401C53E12F2106A0FEF7EEFE8D
:1015100028B12F2103A0FEF7E9FE401C48E145E178
:101520004DE100002E2E5C557365725C4170705C5D
:101530006170705F7461736B2E6300005B25733A9A
:1015400025645D20496E697469616C206672656509
:1015500020686561703A2025642062797465730D96
:101560000A0000007461736B5F6C6564000000002A
:10157000459400085B25733A25645D204C4544E49E
:10158000BBBBE58AA1E5889BE5BBBAE68890E58A06
:101590009F0D0A005B25733A25645D204C4544E4A9
:1015A000BBBBE58AA1E5889BE5BBBAE5A4B1E8B47D
:1015B000A50D0A006B65795F7461736B0000000014
:1015C000458D00085B25733A25645D20E68C89E92A
:1015D00094AEE4BBBBE58AA1E5889BE5BBBAE6888F
:1015E00090E58A9F0D0A00005B25733A25645D2013
:1015F000E68C89E994AEE4BBBBE58AA1E5889BE56E
:10160000BBBAE5A4B1E8B4A50D0A00007461736B20
:101610005F636F6E74726F6C000000008D85000850
:101620005B25733A25645D207461736B5F636F6E35
:1016300074726F6CE4BBBBE58AA1E5889BE5BBBA1D
:10164000E68890E58A9F0D0A000000005B25733A4A
:1016500025645D207461736B5F636F6E74726F6C71
:10166000E4BBBBE58AA1E5889BE5BBBAE5A4B1E88C
:10167000B4A50D0A000000007461736B5F6D6964AE
:10168000646C65776172655F626C6500CD9400087B
:101690005B25733A25645D20424C45E58D8FE8AEAD
:1016A000AEE8A7A3E69E90E4BBBBE58AA1E5889BD4
:1016B000E5BBBAE68890E58A9F0D0A005B25733A80
:1016C00025645D20424C45E58D8FE8AEAEE8A7A3CA
:1016D000E69E90E4BBBBE58AA1E5889BE5BBBAE545
:1016E000A4B1E8B4A50D0A007461736B5F626C6508
:1016F00000000000B98200085B25733A25645D2074
:10170000424C45E4BBBBE58AA1E5889BE5BBBAE654
:101710008890E58A9F0D0A005B25733A25645D2059
:10172000424C45E4BBBBE58AA1E5889BE5BBBAE535
:10173000A4B1E8B4A50D0A007461736B5F6E7266A4
:1017400032346C3031000000759500085B25733A27
:1017500025645D204E524632344C3031E4BBBBE54B
:101760008AA1E5889BE5BBBAE68890E58A9F0D0AC9
:10177000000000005B25733A25645D204E5246321E
:10178000344C3031E4BBBBE58AA1E5889BE5BBBAAC
:10179000E5A4B1E8B4A50D0A000000007461736B04
:1017A0005F6F6C656400000059960008AFF28C20F2
:1017B00005467E22294626A003F056FF21E05C2143
:1017C000AFF2A020FEF792FD30B15C21AFF2AC2069
:1017D000FEF78CFD401C0EE02F21AFF2B820FEF783
:1017E00085FD30B12F21AFF2C420FEF77FFD401CF4
:1017F00001E0AFF2D0200546822229461DA003F069
:1018000033FF08F003FB06465C21AFF2E820FEF749
:101810006DFD30B15C21AFF2F420FEF767FD401C96
:101820000EE02F21AFF20430FEF760FD30B12F2122
:10183000AFF21030FEF75AFD401C01E0AFF21C3051
:10184000054633468422294613A003F00DFF7CBDD4
:101850005B25733A25645D204F4C4544E4BBBBE5F2
:101860008AA1E5889BE5BBBAE68890E58A9F0D0AC8
:10187000000000005B25733A25645D204F4C454411
:10188000E4BBBBE58AA1E5889BE5BBBAE5A4B1E86A
:10189000B4A50D0A000000005B25733A25645D20A5
:1018A000686561703A2025642062797465730D0A59
:1018B0000000000000BFFEE7704772B600BFFEE701
:1018C0000146002291F82100022808D004208863F4
:1018D00000BF002081F8200000BF01207047086889
:1018E000006820F00E000B6818600868006820F09F
:1018F00001000B68186091F8403001209840CB6BD4
:101900005860012081F8210000BF002081F82000EC
:1019100000BF1046E2E7000070B50446002594F8C9
:101920002100022803D00420A063012548E020689C
:10193000006820F00E00216808602068006820F030
:101940000100216808601F492068884201D10120F8
:1019500026E01C4914312068884201D110201FE084
:10196000184928312068884201D1801518E01549AE
:101970003C312068884201D1801411E01149503176
:101980002068884202D14FF4803009E00D4964316B
:101990002068884202D14FF4801001E04FF080703F
:1019A000084908394860012084F8210000BF002060
:1019B00084F8200000BF606B10B12046616B88473F
:1019C000284670BD0800024070B5044600F0B8F922
:1019D00006462546681C10B104480078054400BF3F
:1019E00000F0AEF9801BA842FAD370BD0C000020B5
:1019F0002DE9F8470346002294466EE14FF00108B6
:101A000008FA02F4D1F8008008EA0400A0427DD16F
:101A1000DFF8DCA2D1F80480A8EB0A09D0453AD05F
:101A200014DCB8F1030F50D009DCB8F1000F31D04D
:101A3000B8F1010F1CD0B8F1020F49D120E0B8F184
:101A4000110F18D0B8F1120F42D11EE0B9F5881F5E
:101A500025D006DCB9F5803F20D0B9F5801F37D1FD
:101A60001AE0B9F5001F18D0B9F5041F30D117E0FE
:101A7000D1F80CC02DE0D1F80C8008F1040C28E05E
:101A8000D1F80C8008F1080C23E0D1F80C8008F1A3
:101A90000C0C1EE000BF00BF00BF00BF00BF00BFB6
:101AA000D1F80880B8F1000F02D14FF0040C0BE020
:101AB000D1F80880B8F1010F03D14FF0080C1C6178
:101AC00002E04FF0080C5C6103E04FF0000C00E016
:101AD00000BF00BFFF2801D8984601E003F10408C9
:101AE0004646FF2802D84FEA820803E0A2F1080820
:101AF0004FEA88084746D6F800804FF00F0909FAE8
:101B000007F928EA09080CFA07F900E088E048EA32
:101B10000908C6F80080D1F8048008F08058B8F1B0
:101B2000805F7DD100BFDFF8CC81D8F8188048F005
:101B30000108DFF8C091C9F81880C846D8F81880A5
:101B400008F00108CDF8008000BF00BF4FEAB938A7
:101B50004FEA920958F829504FEA82784FEA1879EB
:101B60004FF00F0808FA09F825EA0805DFF8888120
:101B7000434502D14FF0000816E0DFF8808143456D
:101B800002D14FF001080FE0DFF87481434502D124
:101B90004FF0020808E0DFF86C81434502D14FF0B6
:101BA000030801E04FF004084FEA82794FEA1979FF
:101BB00008FA09F848EA0505DFF84C814FEA92096E
:101BC00048F82950D1F8048008F48018B8F5801F2F
:101BD0000AD1DFF83881D8F8008048EA0008DFF839
:101BE0002C91C9F8008009E0DFF82081D8F8008046
:101BF00028EA0008DFF81491C9F80080D1F80480C1
:101C000008F40018B8F5001F10D1DFF8008108F1C2
:101C10000408D8F8008048EA0008DFF8F09000E0F7
:101C20005AE009F10409C9F800800DE0DFF8DC8012
:101C300008F10408D8F8008028EA0008DFF8CC9002
:101C400009F10409C9F80080D1F8048008F40038CB
:101C5000B8F5003F0ED1DFF8B480A8F10408D8F839
:101C6000008048EA0008DFF8A490A9F10409C9F847
:101C700000800DE0DFF89480A8F10408D8F8008017
:101C800028EA0008DFF88490A9F10409C9F8008067
:101C9000D1F8048008F48038B8F5803F0ED1DFF821
:101CA0006C80A8F10808D8F8008048EA0008DFF83E
:101CB0005C90A9F10809C9F800800DE0DFF84C80BC
:101CC000A8F10808D8F8008028EA0008DFF83C905E
:101CD000A9F10809C9F80080521CD1F8008028FA3F
:101CE00002F8B8F1000F7FF489AEBDE8F887000074
:101CF000000011100010024000080140000C0140DB
:101D00000010014000140140080001400804014097
:101D1000024693680B400BB1012000E000207047A1
:101D200010B5C26821EA020302EA010443EA04434F
:101D3000036110BD0AB1016101E00B04036170474A
:101D400001480068704700000400002070B5044698
:101D50000CB9012070BD94F83D0028B9002084F82A
:101D60003C00204600F046FB242084F83D0020681B
:101D7000006820F00100216808602068006840F4D5
:101D80000040216808602068006820F40040216855
:101D9000086000F05BFD05465C496068884206D833
:101DA0005B48854201D2012007E0002005E0594848
:101DB000854201D2012000E00020012800D1C9E7BE
:101DC0005548B5FBF0F62068406820F03F003043EE
:101DD000216848604D496068884201D8701C07E05E
:101DE0004FF4967070434FF47A71B0FBF1F0401CE1
:101DF0002168096A21F03F010843216808624349CC
:101E00006068884214D8681E61684900B0FBF1F030
:101E1000401CC0F30B00042801D204203DE0681EE2
:101E200061684900B0FBF1F0401CC0F30B0034E0E6
:101E3000A06838B9681E616801EB4101B0FBF1F0A0
:101E4000401C0AE0681E616801EBC10202EB01114F
:101E5000B0FBF1F0401C40F48040C0F30B0008B927
:101E600001201AE0A06848B9681E616801EB4101D1
:101E7000B0FBF1F0401CC0F30B000CE0681E616881
:101E800001EBC10202EB0111B0FBF1F0401CC0F309
:101E90000B0040F4804040F400402168C9694CF6D2
:101EA000FF72914308432168C861D4E907010843E0
:101EB0002168096821F0C001084321680860D4E95D
:101EC000031008432168896848F2FF3291430843B0
:101ED00021688860D4E9050108432168C96821F0B8
:101EE000FF0108432168C8602068006840F00100D5
:101EF0002168086000202064202084F83D00002034
:101F0000206384F83E0000BF24E70000A0860100A3
:101F100080841E0000093D0040420F002DE9FE4F65
:101F200004460F4690469946DDE90CAB0E9E002014
:101F30000290FFF705FF054694F83D00202872D176
:101F400019230122CE492046009502F006FA10B16D
:101F50000220BDE8FE8F00BF94F83C00012801D1AB
:101F60000220F6E7012084F83C0000BF20680068EA
:101F700000F0010028B92068006840F001002168E5
:101F800008602068006820F4006021680860222052
:101F900084F83D00402084F83E0000202064C4F80E
:101FA00024A0A4F82AB0608D2085B648E0624B4694
:101FB000424639462046CDE9006502F07BF808B17B
:101FC0000120C6E7208D88B900BF0020019020685D
:101FD0004069019020688069019000BF00BF2068BF
:101FE000006840F40070216808604BE0208D0128F3
:101FF0001AD12068006820F480602168086072B6F9
:1020000000BF00200190206840690190206880692D
:10201000019000BF00BF2068006840F40070216894
:10202000086062B62EE029E1208D022819D12068CF
:10203000006840F400602168086072B600BF0020AC
:10204000019020684069019020688069019000BF7C
:1020500000BF2068006820F480602168086062B6D4
:1020600010E02068006840F480602168086000BFCC
:1020700000200190206840690190206880690190EB
:1020800000BF00BFEBE0208D03287DD8208D012804
:1020900015D12A463146204602F03BFA08B101200C
:1020A00057E720680069616A0870606A401C6062D6
:1020B000208D401E2085608D401E6085CFE0208DE4
:1020C00002282CD1334600226F492046009502F0A9
:1020D00044F908B101203CE772B62068006840F47A
:1020E00000702168086020680069616A0870606A91
:1020F000401C6062208D401E2085608D401E6085E2
:1021000062B620680069616A0870606A401C60629B
:10211000208D401E2085608D401E60859FE03346E7
:10212000002259492046009502F017F908B1012014
:102130000FE72068006820F480602168086072B6AC
:1021400020680069616A0870606A401C6062208DC6
:10215000401E2085608D401E60854C480068192116
:10216000B0FBF1F04FF47A71B0FBF1F0C0EBC000BE
:1021700000EB8000029000BF0298401E029002987F
:10218000A8B90020206300E039E0202084F83D0059
:10219000002084F83E00206C40F02000206462B6ED
:1021A00000BF002084F83C0000BF0120D1E6206879
:1021B0004069C0F380000028DED02068006840F449
:1021C00000702168086020680069616A0870606AB0
:1021D000401C6062208D401E2085608D401E608501
:1021E00062B620680069616A0870606A401C6062BB
:1021F000208D401E2085608D401E60852FE02A4680
:102200003146204602F085F908B10120A1E6206898
:102210000069616A0870606A401C6062208D401E1F
:102220002085608D401E608520684069C0F3800075
:10223000A8B1208D032805D12068006820F48060B3
:102240002168086020680069616A0870606A401C43
:102250006062208D401E2085608D401E6085208D2F
:1022600000287FF410AF202084F83D00002084F87F
:102270003E0000BF84F83C0000BF6AE6022068E62A
:10228000020010000000FFFF040001001000002009
:102290002DE9FC5F04460F4690469946DDE90CABFC
:1022A0000E9EFFF74DFD054694F83D0020287DD198
:1022B000192301224D492046009502F04EF810B135
:1022C0000220BDE8FC9F00BF94F83C00012801D12A
:1022D0000220F6E7012084F83C0000BF2068006877
:1022E00000F0010028B92068006840F00100216872
:1022F00008602068006820F40060216808602120E0
:1023000084F83D00402084F83E0000202064C4F89A
:1023100024A0A4F82AB0608D20853548E0624B46A1
:10232000424639462046CDE9006501F073FF08B109
:102330000120C6E731E02A463146204602F02EF958
:1023400050B1206C042805D12068006840F400706A
:10235000216808600120B4E7606A0078216808619C
:10236000606A401C6062208D401E2085608D401E8A
:10237000608520684069C0F3800070B1208D60B135
:10238000606A007821680861606A401C6062208D84
:10239000401E2085608D401E6085208D0028CAD19A
:1023A0002A463146204601F0A5FF00E01CE050B16E
:1023B000206C042805D12068006840F40070216872
:1023C000086001207DE72068006840F40070216803
:1023D0000860202084F83D00002084F83E0000BF03
:1023E00084F83C0000BF6CE702206AE7020010009E
:1023F0000000FFFF10B586B0044600200290039055
:102400000490059016492068884226D100BF1548DF
:10241000806940F00800134988610846806900F02F
:102420000800019000BF00BF4FF4406002901220EE
:1024300003900320059002A90B48FFF7D9FA00BFCB
:102440000848C06940F480000649C8610846C06970
:1024500000F48000019000BF00BF06B010BD000076
:102460000058004000100240000C01400348006882
:1024700003490978084401490860704704000020B6
:102480000C00002010B50848006840F01000064914
:102490000860032000F0D8F80F2000F007F800F0E3
:1024A00055F8002010BD000000200240F0B587B0B4
:1024B000044600260027002500BF1F48806940F41D
:1024C00000601D4988610846806900F40060009042
:1024D00000BF00BF01A902A800F090F900F0C6F902
:1024E00006461648B6FBF0F0471E15481549086029
:1024F00040F2E7311348C16047600021016181600B
:10250000816100F043FE054695B90E4800F088FE53
:1025100005466DB9192000F049F8102C07D20022A9
:102520002146192000F052F80748046000E0012518
:10253000284607B0F0BD00000010024040420F00E6
:10254000002C0140C40300200800002008B500BF93
:102550001448806940F0010012498861084680698A
:1025600000F00100009000BF00BF00BF0846C06936
:1025700040F08050C8610846C06900F0805000906B
:1025800000BF00BF00220F21901E00F01FF800BF07
:102590000549486820F0E06040F00070486000BFE6
:1025A00008BD00000010024000000140014608463E
:1025B000002809DB00F01F0301229A4043099B0019
:1025C00003F1E023C3F8002100BF70472DE9F05F5D
:1025D00080460D461646002703F06AF8074639463E
:1025E0002A46334601F00700C0F1070ABAF1040F8A
:1025F00002D94FF0040A01E0C0F1070AD14600F108
:10260000040ABAF1070F02D24FF0000A01E0A0F16C
:10261000030AD4464FF0010A0AFA09FAAAF1010A9C
:102620000AEA020A0AFA0CFA4FF0010B0BFA0CFB49
:10263000ABF1010B0BEA030B4AEA0B0421464046BF
:1026400003F03EF8BDE8F09F00BF00F00702064B24
:1026500019684FF6FF031940044B0B4343EA02216C
:10266000014B196000BF70470CED00E00000FA0557
:1026700070B504460D460CB9012070BD5A4800687B
:1026800000F00700A8420ED25748006820F007006B
:102690002843554908600846006800F00700A84232
:1026A00001D00120E9E7207800F0020002281DD1C6
:1026B000207800F00400042805D14C48406840F41C
:1026C000E0604A494860207800F00800082805D1F9
:1026D0004648406840F46050444948604348406878
:1026E00020F0F000A168084340494860207800F0DD
:1026F000010078B36068012806D13C48006800F406
:10270000003090B90120B8E76068022806D1374848
:10271000006800F0007040B90120AEE7334800685F
:1027200000F0020008B90120A7E73048406820F017
:102730000300616808432D494860FFF701FB064626
:1027400009E0FFF7FDFA801B41F28831884202D987
:10275000032092E707E02548406800F00C0061681C
:10276000B0EB810FEDD12048006800F00700A842CF
:102770000ED91D48006820F0070028431A49086058
:102780000846006800F00700A84201D0012074E765
:10279000207800F00400042807D11448406820F491
:1027A000E060E168084311494860207800F00800C3
:1027B000082808D10D48406820F46050216940EA9B
:1027C000C1000A49486000F061F808494968C1F34E
:1027D0000311074A515CC840064908600648006872
:1027E000FFF764FE002048E700200240001002408E
:1027F000EEAE000810000020080000200F2202604A
:102800000D4A526802F0030242600B4A526802F01D
:10281000F0028260084A526802F4E062C260064A2E
:10282000526802F46052D2080261044A126802F04F
:1028300007020A60704700000010024000200240BA
:1028400001480068704700001000002000B5FFF745
:10285000F7FF04494968C1F30221034A515CC840AB
:1028600000BD000000100240FEAE000800B5FFF7FA
:10287000E7FF04494968C1F3C221034A515CC840DB
:1028800000BD000000100240FEAE000870B500213F
:102890000022002400230020134D696801F00C057C
:1028A000F5B1042D02D0082D19D101E00F4819E02F
:1028B0000F4DC1F38346AB5D01F4803555B10A4D30
:1028C0006D68C5F340450B4E725D084D5D43B5FB29
:1028D000F2F402E0084D03FB05F4204602E000BFDD
:1028E000024800BF00BF70BD0010024000127A0015
:1028F000DCAE0008ECAE000800093D00F8B5044667
:102900000CB90120F8BD207800F00100002878D033
:10291000F848406800F00C0004280CD0F5484068E6
:1029200000F00C00082811D1F248406800F4803013
:10293000B0F5803F0AD1EF48006800F4003000286D
:102940005FD0606800285CD10120DBE700BF6068D1
:10295000B0F5803F06D1E748006840F48030E54993
:10296000086028E0606858B9E248006820F48030C8
:10297000E04908600846006820F4802008601AE0FA
:102980006068B0F5A02F0BD1DA48006840F48020D1
:10299000D84908600846006840F4803008600AE0C2
:1029A000D448006820F48030D249086008460068A6
:1029B00020F48020086000BF606888B1FFF7C0F98C
:1029C000054606E0FFF7BCF9401B642801D9032047
:1029D00098E7C848006800F400300028F2D010E002
:1029E000FFF7AEF9054606E0FFF7AAF9401B642899
:1029F00001D9032086E7BF48006800F400300028B2
:102A0000F2D1207800F00200022857D1B94840687E
:102A100000F00C0050B1B748406800F00C000828E6
:102A200018D1B448406800F4803098B9B1480068C3
:102A300000F0020020B12069012801D0012061E7E7
:102A4000AC48006820F0F800616940EAC100A9497B
:102A5000086033E02069E8B10120A7490860FFF76A
:102A60006FF9054606E0FFF76BF9401B022801D914
:102A7000032047E79F48006800F002000028F2D0DA
:102A80009C48006820F0F800616940EAC10099495B
:102A9000086013E0002098490860FFF751F90546E7
:102AA00006E0FFF74DF9401B022801D9032029E772
:102AB0009048006800F002000028F2D1207800F071
:102AC000080008282DD1A069B8B101208B49086001
:102AD000FFF736F9054606E0FFF732F9401B0228FA
:102AE00001D903200EE78348406A00F00200002865
:102AF000F2D0012002F08AF913E000207F4908603B
:102B0000FFF71EF9054606E0FFF71AF9401B0228F9
:102B100001D90320F6E67748406A00F00200002859
:102B2000F2D1207800F00400042873D10027714806
:102B3000C06900F0805070B900BF6E48C06940F0B5
:102B400080506C49C8610846C06900F08050009010
:102B500000BF00BF01276A48006800F48070B0B968
:102B60006748006840F4807065490860FFF7E8F83E
:102B7000054606E0FFF7E4F8401B642801D903206E
:102B8000C0E65F48006800F480700028F2D000BF03
:102B9000E068012806D15748006A40F00100554915
:102BA000086227E0E06858B95248006A20F0010046
:102BB000504908620846006A20F00400086219E0E3
:102BC000E06805280BD14B48006A40F004004949F1
:102BD00008620846006A40F0010008620AE04548C1
:102BE000006A20F00100434908620846006A20F0AC
:102BF0000400086200BFE068A0B1FFF7A1F8054635
:102C000009E0FFF79DF8401B41F28831884202D964
:102C1000032077E622E03748006A00F0020000282F
:102C2000EFD012E0FFF78CF8054608E0FFF788F8D0
:102C3000401B41F28831884201D9032062E62D48C9
:102C4000006A00F002000028F0D1012F05D12948C8
:102C5000C06920F080502749C86100BFE069C8B34F
:102C60002448406800F00C00082860D0E069022881
:102C700048D1002020490866FFF762F8054606E0C3
:102C8000FFF75EF8401B022801D903203AE61948F5
:102C9000006800F000700028F2D1206AB0F5803F93
:102CA00007D11448406820F40030A1680843114956
:102CB0004860D4E9080108430E49496821F47411B9
:102CC00008430C49486001200B490866FFF738F8B3
:102CD000054607E03DE0FFF733F8401B022801D925
:102CE00003200FE60348006800F000700028F2D0CF
:102CF0002FE00000001002400000424280044242E7
:102D000000700040002014490866FFF719F80546D6
:102D100006E0FFF715F8401B022801D90320F1E572
:102D20000E48006800F000700028F2D111E0E06960
:102D3000012800D1E6E50948466806F48031206A9A
:102D4000814204D106F47011606A814201D00120F1
:102D5000D8E50020D6E50000000042420010024005
:102D600010B504460CB9012010BD606A38B960681E
:102D7000B0F5827F00D105E00021E16102E0002191
:102D8000216161610021A16294F8510028B90020FD
:102D900084F85000204600F043F8022084F85100E7
:102DA0002068006820F0400021680860A08800F4D6
:102DB0008270218901F404410843A18901F4006172
:102DC0000843217C01F002010843217D01F001014B
:102DD0000843218B01F400710843217F01F0380181
:102DE00008432021095D01F080010843218D01F491
:102DF00000510843216808600421A06901EA1040DD
:102E0000216848602068C06920F400602168C861BA
:102E100000206065012084F851000020A4E7000034
:102E200010B586B0044600200290039004900590EF
:102E30001E492068884237D100BF1D48806940F490
:102E400080501B4988610846806900F480500190D9
:102E500000BF00BF00BF0846806940F008008861DD
:102E60000846806900F00800019000BF00BF2820DC
:102E70000290022003900320059002A90D48FEF75E
:102E8000B7FD10200290002003900120049002A9B9
:102E90000848FEF7ADFD00BF0749486840F0E06014
:102EA00040F00100486000BF06B010BD0030014096
:102EB00000100240000C0140000001402DE9FE4FCF
:102EC00004460F4690461D460C9E01200190FEF7D9
:102ED00037FF814694F851B060680290AA46BBF172
:102EE000010F0BD00298B0F5827F04D1A06810B911
:102EF000BBF1040F02D00220BDE8FE8F1FB1B8F174
:102F0000000F00D00DB90120F6E700BF94F8500083
:102F1000012801D10220EFE7012084F8500000BF12
:102F200094F85100042802D0052084F851000020B4
:102F30006065C4F83880E587A5872763E586A586A0
:102F4000206460642068006800F04000402805D0DC
:102F50002068006840F0400021680860E068B0F533
:102F6000006F52D1606810B1BAF1010F09D1206B26
:102F700000882168C860206B801C2063E08E401EA2
:102F8000E0863BE02068806800F00200022810D153
:102F9000E08E70B1019801280BD1206B0088216868
:102FA000C860206B801C2063E08E401EE0860020FD
:102FB00001902068806800F0010068B1E08F58B18E
:102FC0002068C068A16B0880A06B801CA063E08FA4
:102FD000401EE08701200190FEF7B2FEA0EB090041
:102FE000B0420BD3701C48B1012084F8510000BFDF
:102FF000002084F8500000BF03207DE7E08E002809
:10300000C0D1E08F0028BDD152E0606810B1BAF1A4
:10301000010F09D1206B007821680873206B401CD8
:103020002063E08E401EE0863CE02068806800F06F
:103030000200022810D1E08E70B1019801280BD156
:10304000206B007821680873206B401C2063E08EA1
:10305000401EE086002001902068806800F001009A
:1030600068B1E08F58B12068C068A16B0870A06B90
:10307000401CA063E08F401EE08701200190FEF716
:103080005FFEA0EB0900B04201D3701C00B94EB93D
:10309000012084F8510000BF002084F8500000BFD8
:1030A000032029E7E08E0028BFD1E08F0028BCD1A3
:1030B0004A463146204601F0BDFE40B12020606501
:1030C00000BF002084F8500000BF012014E7A06872
:1030D00050B900BF002000902068C06800902068B0
:1030E0008068009000BF00BF012084F8510000BF3D
:1030F000002084F8500000BF606D08B10120FBE69D
:103100000020F9E67047704730B502460B4600BF15
:1031100092F83C00012801D1022030BD012082F844
:103120003C0000BF022082F83D001068446810682F
:10313000816824F070041868044310684460104DDE
:103140001068A8420BD01068B0F1804F07D00D4D29
:103150001068A84203D00C4D1068A84205D121F098
:1031600080015868014310688160012082F83D00A9
:1031700000BF002082F83C0000BF00BFCDE7000088
:10318000002C0140000400400008004010B5044637
:103190000CB9012010BD94F83D0028B9002084F836
:1031A0003C00204600F026F8022084F83D00211D56
:1031B000206801F019FF012084F8460000BF84F860
:1031C0003E0001213F20015540200155412001557D
:1031D00000BF00BF012084F8420043200155442075
:1031E00001554520015500BF012084F83D00002015
:1031F000D0E7000008B50168B1F1804F0DD100BFE4
:103200000649C96941F00101044AD1611146C96901
:1032100001F00101009100BF00BF08BD0010024095
:10322000014691F83D00012801D00120704702209D
:1032300081F83D000868C06840F001000B68D86064
:10324000124B086898420BD00868B0F1804F07D045
:103250000F4B0868984203D00E4B086898420CD177
:103260000868806800F00702062A0CD00868006829
:1032700040F001000B68186005E00868006840F045
:1032800001000B6818600020D0E70000002C01400E
:1032900000040040000800402DE9F04104460D46BE
:1032A000002700BF94F83C00012802D10220BDE8AD
:1032B000F081012084F83C0000BF022084F83D002A
:1032C0002068866826F0770626F47F4620688660A8
:1032D0002868502833D00CDC202850D004DC00288B
:1032E0004BD0102851D149E0302849D040284CD14A
:1032F00039E060282DD0702807D0B0F5805F03D06A
:10330000B0F5005F41D10DE041E0D5E902136A68F4
:10331000206801F0BCFE2068866846F077062068C9
:10332000866034E0D5E902136A68206801F0AFFED8
:103330002068806840F480402168886027E0EA685F
:103340006968206801F074FF5021206801F0AAFE2E
:103350001DE0EA686968206801F07DFF602120684F
:1033600001F0A0FE13E0EA686968206801F060FFE0
:103370004021206801F096FE09E000BF00BF00BFB9
:103380002968206801F08EFE01E0012700BF00BF20
:10339000012084F83D0000BF002084F83C0000BFFD
:1033A000384684E72DE9F04104460D4614B9012062
:1033B000BDE8F08194F83D0028B9002084F83C0075
:1033C000204600F051F8022084F83D002068806813
:1033D00044F20701884321688860211D206801F0BC
:1033E00003FE2068D0F80880206886692068076A94
:1033F000286840EA080840F203308643A969A868B3
:1034000040EA0120064340F60C4086434FF2F000AC
:103410008643E969E86840EA01200643286900011B
:10342000296A40EA0130064327F022076969686883
:1034300040EA011007432068C0F8088020688661D0
:1034400020680762012084F8460084F83E000121CC
:103450003F200155012084F84200432001550120FE
:1034600084F83D000020A3E710B586B00446002094
:10347000029003900490059029492068884224D145
:1034800000BF2848C06940F002002649C8610846CC
:10349000C06900F00200019000BF00BF00BF0846F5
:1034A000806940F0040088610846806900F00400EB
:1034B000019000BF00BFC020029000200390049044
:1034C00002A91948FEF794FA27E0184920688842B3
:1034D00023D100BF1348C06940F004001149C861FE
:1034E0000846C06900F00400019000BF00BF00BFA3
:1034F0000846806940F0080088610846806900F04D
:103500000800019000BF00BFC0200290002003907F
:10351000049002A90648FEF76BFA06B010BD000041
:103520000004004000100240000801400008004074
:10353000000C01402DE9F04304460D4694F83E602E
:103540003F20075D94F84280432010F804906DB945
:10355000012E02D1B8F1010F02D00120BDE8F083A5
:10356000022084F83E0084F8420025E0042D0CD1AE
:10357000012F02D1B9F1010F01D00120EEE70221A4
:103580003F2001554320015516E0012E07D1012FA0
:1035900005D1B8F1010F02D1B9F1010F01D001201D
:1035A000DCE7022084F83E0002213F200155022082
:1035B00084F842004320015515B1042D0CD105E0DB
:1035C00001220021206801F051FD10E001220421B8
:1035D000206801F04BFD0AE001220021206801F083
:1035E00045FD01220421206801F040FD00BF00BF1D
:1035F0002068006840F00100216808600020ADE705
:10360000704770B504462068C5682068066906F0F2
:103610000200022819D105F00200022815D1401F2E
:1036200021680861012020772068806900F003008C
:1036300018B12046FFF7E4FF05E0204600F0C2F88D
:10364000204600F076F90020207706F004000428D8
:1036500019D105F00400042815D1C0432168086180
:10366000022020772068806900F4407018B120465D
:10367000FFF7C6FF05E0204600F0A4F8204600F062
:1036800058F90020207706F00800082819D105F025
:103690000800082815D1C04321680861042020775C
:1036A0002068C06900F0030018B12046FFF7A8FFAA
:1036B00005E0204600F086F8204600F03AF90020A8
:1036C000207706F01000102819D105F010001028FE
:1036D00015D1C04321680861082020772068C0699F
:1036E00000F4407018B12046FFF78AFF05E020463D
:1036F00000F068F8204600F01CF90020207706F062
:10370000010048B105F0010030B16FF001002168FF
:103710000861204600F0C6F906F08000802809D133
:1037200005F08000802805D1C0432168086120464B
:10373000FFF7E8FC06F04000402809D105F0400002
:10374000402805D1C04321680861204600F0B6F941
:1037500006F02000202809D105F02000202805D1FE
:10376000C043216808612046FFF7CDFC70BD000012
:1037700010B586B004460020029003900490059096
:103780002068B0F1804F16D100BF0C48806940F02E
:1037900004000A4988610846806900F0040001902D
:1037A00000BF00BF0320029002200390059002A9F1
:1037B0000348FEF71DF906B010BD000000100240DE
:1037C0000008014070472DE9F04104460D461646B9
:1037D000002700BF94F83C00012802D10220BDE878
:1037E000F081012084F83C0000BF36B1042E1BD0CC
:1037F000082E31D00C2E5ED145E02946206801F01C
:103800005BFC2068806940F00800216888612068BE
:10381000806920F004002168886120688069296936
:1038200008432168886148E02946206801F074FC5B
:103830002068806940F400602168886120688069A0
:1038400020F480602168886120688069296940EAE5
:1038500001202168886130E02946206801F090FC51
:103860002068C06940F008002168C8612068C0690C
:1038700020F004002168C8612068C06929690843F4
:103880002168C86119E02946206801F0ADFC206874
:10389000C06940F400602168C8612068C06920F4F4
:1038A00080602168C8612068C069296940EA0120F8
:1038B0002168C86101E0012700BF00BF00BF0020F0
:1038C00084F83C0000BF384689E710B504460CB9BF
:1038D000012010BD94F83D0028B9002084F83C0078
:1038E000204600F025F8022084F83D00211D2068C4
:1038F00001F07AFB012084F8460000BF84F83E0006
:1039000001213F200155402001554120015500BFB4
:1039100000BF012084F84200432001554420015596
:103920004520015500BF012084F83D000020D0E76C
:103930007047704770B504460D4615B994F83E00BF
:103940000BE0042D02D13F20005D06E0082D02D1DE
:103950004020005D01E04120005D012801D00120F0
:1039600070BD1DB9022084F83E000EE0042D03D185
:1039700002213F20015508E0082D03D102214020FB
:10398000015502E00221412001550122294620680B
:1039900001F06CFB19492068884201D1012000E048
:1039A000002028B12068406C40F400402168486441
:1039B0001249206888420BD02068B0F1804F07D0B0
:1039C0000F492068884203D00E49206888420CD1F4
:1039D0002068806800F00706062E0CD0206800687A
:1039E00040F001002168086005E02068006840F0B0
:1039F0000100216808600020B2E70000002C0140AF
:103A0000000400400008004030B504460D46002286
:103A10002946206801F02AFB21492068884201D10B
:103A2000012000E0002090B100BF2068006A41F250
:103A30001111084050B92068006A8910084028B95F
:103A40002068406C20F400402168486400BF00BF3B
:103A50002068006A41F21111084050B92068006ADC
:103A60008910084028B92068006820F0010021680A
:103A7000086000BF1DB9012084F83E000EE0042D4F
:103A800003D101213F20015508E0082D03D1012178
:103A90004020015502E0012141200155002030BDA8
:103AA000002C014010B5044603492068884201D12A
:103AB000FEF7DCFC10BD0000002C01407047704791
:103AC000704700002DE9F84F04462068056820681B
:103AD000C668206847694FF00009CA4605F00F091B
:103AE000B9F1000F0AD105F0200038B106F020002E
:103AF00020B1204601F013FCBDE8F88FB9F1000FAA
:103B00007BD007F0010018B906F49070002874D03B
:103B100005F0010030B106F4807018B1606C40F01F
:103B20000100606405F0040030B107F0010018B135
:103B3000606C40F00200606405F0020030B107F0F4
:103B4000010018B1606C40F00400606405F00800EA
:103B500048B106F0200010B907F0010018B1606C00
:103B600040F008006064606C002845D005F020003B
:103B700028B106F0200010B1204601F0D0FB2068EB
:103B80004069C0F3801A606C00F0080010B9BAF107
:103B9000000F2CD0204601F07CFB2068406900F02B
:103BA000400000B300BF00BF2168143151E8001F7E
:103BB00021F040002168143141E80002002AF3D1CD
:103BC00000BFE06B50B17748E16B4863E06BFDF7F5
:103BD000A3FE88B1E06B416B88470DE02046FFF7FC
:103BE0006FFF09E009E02046FFF76AFF04E0204686
:103BF000FFF766FF002060647EE7206B012877D125
:103C000005F01000002873D006F010000028FAD04C
:103C100000BF002000902068006800902068406885
:103C2000009000BF00BF2068406900F040000028FD
:103C30005FD0E06B006840681FFA80F8B8F1000FB1
:103C400055D0A08D404552DDA4F82E80E06B8069F0
:103C5000202843D000BF00BF21680C3151E8001F6D
:103C600021F4807021680C3141E80002002AF3D170
:103C700000BF00BF00BF2168143151E8001F21F0D0
:103C800001002168143141E80002002AF3D100BF8D
:103C900000BF00BF2168143151E8001F21F040002F
:103CA0002168143141E80002002AF3D100BF20202E
:103CB00084F842000020206300BF00BF21680C315F
:103CC00051E8001F21F0100021680C3141E800028A
:103CD000002AF3D100BFE06BFDF7F2FD0220606324
:103CE000A08DE28D801A81B22046FFF7E8FE03E73F
:103CF00042E0A08DE18D401A1FFA80F8E08DD0B32C
:103D0000B8F1000F37D000BF00BF21680C3151E877
:103D1000001F21F4907021680C3141E80002002A54
:103D2000F3D100BF00BF00BF2168143151E8001F6C
:103D300021F001002168143141E80002002AF3D18A
:103D400000BF202084F842000020206300BF00BF95
:103D500021680C3151E8001F21F0100021680C315E
:103D600041E80002002AF3D100BF0220606341460F
:103D70002046FFF7A4FEBFE605F0800030B106F054
:103D8000800018B1204601F0E7FBB5E605F04000E1
:103D900030B106F0400018B1204601F0B0FAABE6B1
:103DA00000BFA9E67F52000810B504460CB90120F7
:103DB00010BDA06900B100E000BF94F8410028B92F
:103DC000002084F84000204600F02AF8242084F8DF
:103DD00041002068C06820F400502168C860204677
:103DE00001F01CFB2068006920F490402168086104
:103DF0002068406920F02A00216848612068C06876
:103E000040F400502168C86000206064202084F8DD
:103E1000410084F842000020606300BFC8E7000052
:103E200010B586B0044600200290039004900590DF
:103E30003B492068884237D100BF3A48806940F446
:103E40008040384988610846806900F480400190CC
:103E500000BF00BF00BF0846806940F004008861D1
:103E60000846806900F00400019000BF00BF4815BB
:103E70000290022003900320059002A92A48FDF732
:103E8000B7FD4FF48060029000200390049002A9D7
:103E90002548FDF7ADFD00220A212520FEF796FBFF
:103EA0002520FEF783FB39E020492068884235D180
:103EB00000BF1C48C06940F400301A49C861084678
:103EC000C06900F40030019000BF00BF00BF084689
:103ED000806940F0040088610846806900F00400B1
:103EE000019000BF00BF0420029002200390032035
:103EF000059002A90C48FDF77BFD082002900020E8
:103F00000390049002A90848FDF772FD00220721E2
:103F10002620FEF75BFB2620FEF748FB06B010BD0F
:103F200000380140001002400008014000440040F9
:103F300070B504460D46164694F8420020280BD171
:103F400005B10EB9012070BD00202063324629461C
:103F5000204601F0E1FAF6E70220F4E738B504461E
:103F6000002000900E4920680968884217D10D484A
:103F7000007803F00FFA69460B48006806F01EFA55
:103F8000012208492046FFF7D3FF009838B14FF0CF
:103F9000805006490860BFF34F8FBFF36F8F38BD65
:103FA0007C010020800100208401002004ED00E05D
:103FB0002DE9F84F04460E46174699464FF0000A81
:103FC00094F84100202850D106B117B90120BDE86E
:103FD000F88F00206064212084F84100FDF7B0FED6
:103FE0008246A784E784A068B0F5805F04D1206989
:103FF00010B90025B04602E035464FF000081EE03B
:104000005346002280212046CDF8009001F0D4FADA
:1040100020B1202084F841000320D8E745B9B8F842
:104020000000C0F308002168486008F1020803E0BE
:104030002878216848606D1CE08C401EE084E08C8C
:104040000028DDD15346002240212046CDF80090C3
:1040500001F0B2FA20B1202084F841000320B6E735
:10406000202084F841000020B1E70220AFE770472C
:1040700000BFFEE7014608684069C0F38020B0B188
:104080006FF480600A68506100200863202081F886
:104090003D00002081F83E00086C40F004000864F8
:1040A00000BF002081F83C0000BF012070470020C5
:1040B000FCE700002DE9F84304460F4615469946F3
:1040C000DDE908862068006840F4806021680860A7
:1040D0002068006840F48070216808604346002230
:1040E0004FF001112046009600F037F960B12068CA
:1040F000006800F48070B0F5807F02D14FF400704A
:1041000020640320BDE8F88307F0FE002168086101
:10411000334642463E49204600F07EF908B1012070
:10412000F0E700BF00200090206840690090206800
:104130008069009000BF00BF32464146204600F033
:104140002DFA50B1206C042805D12068006840F495
:104150000070216808600120D4E7B9F1010F03D194
:10416000E8B22168086117E0C5F3072021680861FB
:1041700032464146204600F011FA50B1206C042826
:1041800005D12068006840F40070216808600120B3
:10419000B8E7E8B22168086132464146204600F09F
:1041A000FDF950B1206C042805D12068006840F466
:1041B0000070216808600120A4E72068006840F4CE
:1041C000807021680860434600224FF001112046AC
:1041D000009600F0C2F858B12068006800F48070C2
:1041E000B0F5807F02D14FF400702064032089E78E
:1041F000F8B240F0010021680861334642460449A4
:10420000204600F009F908B101207BE7002079E79A
:10421000020001002DE9F8430446884615469946F8
:10422000DDE908672068006840F480702168086054
:10423000334600224FF001112046009700F08DF820
:1042400060B12068006800F48070B0F5807F02D112
:104250004FF4007020640320BDE8F88308F0FE00EE
:10426000216808613B4632462149204600F0D4F8D7
:1042700008B10120F0E700BF0020009020684069ED
:10428000009020688069009000BF00BF3A46314628
:10429000204600F083F950B1206C042805D1206835
:1042A000006840F40070216808600120D4E7B9F18B
:1042B000010F03D1E8B22168086117E0C5F30720B8
:1042C000216808613A463146204600F067F950B14E
:1042D000206C042805D12068006840F40070216833
:1042E00008600120B8E7E8B2216808610020B3E760
:1042F0000200010070B504460D46164625E0204632
:10430000FFF7B8FE08B1012070BD681CE8B1FDF7E9
:1043100017FD801BA84200D8BDB920684069C0F3D2
:10432000800090B900202063202084F83D00002008
:1043300084F83E00206C40F02000206400BF002084
:1043400084F83C0000BF0120DEE720684069C0F32C
:1043500080000028D3D00020D6E72DE9F0410446A4
:104360000D4617461E46DDF8188038E0701CA8B3CD
:10437000FDF7E6FCA0EB0800B04200D876BBC5F321
:10438000074001280AD120684069A9B20840A9B2B3
:10439000884201D101200BE0002009E020688069FB
:1043A000A9B20840A9B2884201D1012000E0002052
:1043B000B84214D100202063202084F83D00002062
:1043C00084F83E00206C40F02000206400BF0020F4
:1043D00084F83C0000BF0120BDE8F081FFE7C5F391
:1043E000074001280AD120684069A9B20840A9B253
:1043F000884201D101200BE0002009E0206880699B
:10440000A9B20840A9B2884201D1012000E00020F1
:10441000B842ABD00020DFE72DE9F04104460D465D
:1044200016461F4658E020684069C0F38020E8B176
:104430002068006840F40070216808606FF48060B4
:104440002168486100202063202084F83D0000207E
:1044500084F83E00206C40F00400206400BF00207F
:1044600084F83C0000BF0120BDE8F081701C90B3CF
:10447000FDF766FCC01BB04200D866BBC5F3074021
:1044800001280AD120684069A9B20840A9B288422F
:1044900001D101200BE0002009E020688069A9B269
:1044A0000840A9B2884201D1012000E0002090B963
:1044B00000202063202084F83D00002084F83E0086
:1044C000206C40F02000206400BF002084F83C00F5
:1044D00000BF0120C8E7FFE7C5F3074001280AD164
:1044E00020684069A9B20840A9B2884201D10120E0
:1044F0000BE0002009E020688069A9B20840A9B259
:10450000884201D1012000E0002000288BD000204B
:10451000AAE770B504460D46164637E020684069A4
:10452000C0F30010A0B16FF01000216848610020B6
:104530002063202084F83D00002084F83E00206C99
:10454000206400BF002084F83C0000BF012070BD43
:10455000FDF7F6FB801BA84200D8BDB92068406972
:10456000C0F3801090B900202063202084F83D0023
:10457000002084F83E00206C40F02000206400BF42
:10458000002084F83C0000BF0120E0E7206840697B
:10459000C0F380100028C1D00020D8E770B50446D1
:1045A0000D46164625E02046FFF764FD08B10120C0
:1045B00070BD681CE8B1FDF7C3FB801BA84200D8A2
:1045C000BDB920684069C0F3C01090B900202063D5
:1045D000202084F83D00002084F83E00206C40F04C
:1045E0002000206400BF002084F83C0000BF0120B0
:1045F000DEE720684069C0F3C0100028D3D0002057
:10460000D6E7000010B5FCF789FD044A00210448F4
:1046100002F0FCFF0349086010BD0000B8AE0008BE
:10462000514F00080000002000B585B00020019027
:1046300002900390049000BF4C48806940F0100045
:104640004A4988610846806900F01000009000BF68
:1046500000BF00BF0846806940F02000886108461E
:10466000806900F02000009000BF00BF00BF084636
:10467000806940F0040088610846806900F0040009
:10468000009000BF00BF00BF0846806940F00800EE
:1046900088610846806900F00800009000BF00BFF4
:1046A000012251033248FDF745FB00224FF47041CF
:1046B0003048FDF73FFB00224FF480712E48FDF794
:1046C00039FB0122D1032C48FDF734FB01224FF4C2
:1046D00040712848FDF72EFB4FF400500190012057
:1046E0000290002003900220049001A92048FDF7C9
:1046F0007FF930200190002002900120039001A951
:104700001D48FDF775F9032001900020029001205B
:10471000039001A91748FDF76BF94FF47040019021
:1047200001200290002003900220049001A911486A
:10473000FDF75EF94FF40140019001200290002046
:1047400003900220049001A90B48FDF751F94FF4A2
:1047500040700190112002900020039002200490EC
:1047600001A90448FDF744F905B000BD001002405E
:1047700000100140000C01400008014010B50B483A
:104780000B4908600B484860002109488160C160FE
:104790004FF480410161002141618161C161016289
:1047A000FDF7D4FA08B1FDF788F810BD00580040B5
:1047B000B0010020A086010010B50E480E49086027
:1047C0004FF48270486000210B488160C160016134
:1047D00041614FF4007181611021C16100210162CA
:1047E000416281620A21C162FEF7BAFA08B1FDF79F
:1047F00064F810BD003001400402002000B58DB007
:10480000002009900A900B900C90079008901C21B2
:104810006846FBF72FFD4FF08040234908602320B6
:1048200048600021204881606321C160002101614E
:104830008161FEF7ABFC08B1FDF73FF84FF4805003
:10484000099009A91848FEF727FD08B1FDF735F8CA
:104850001548FFF73AF808B1FDF72FF80020079048
:10486000089007A91048FEF74FFC08B1FDF725F89E
:104870006020009000200190029004900022694680
:104880000948FEF7A0FF08B1FDF717F804226946B2
:104890000548FEF798FF08B1FDF70FF80248FEF74C
:1048A00067FF0DB000BD00005C02002000B58BB0BA
:1048B000242102A8FBF7DEFC00200090019019489B
:1048C00019490860002048600021174881604FF6B0
:1048D000FF71C1600021016181610320029000200D
:1048E000039001200490002005900F2006900020E6
:1048F000079001200890002009900F200A9002A93B
:104900000948FEF74FFD08B1FCF7D7FF00200090E3
:10491000019069460448FEF7F7FB08B1FCF7CDFFAC
:104920000BB000BD00040040A402002000B58BB015
:10493000242102A8FBF79EFC00200090019019485A
:1049400019490860002048600021174881604FF62F
:10495000FF71C1600021016181610320029000208C
:10496000039001200490002005900F200690002065
:10497000079001200890002009900F200A9002A9BA
:104980000948FEF70FFD08B1FCF797FF00200090E3
:10499000019069460448FEF7B7FB08B1FCF78DFFAC
:1049A0000BB000BD00080040EC02002010B50B4821
:1049B0000B4908604FF4E1304860002108488160ED
:1049C000C16001610C21416100218161C161FFF77A
:1049D000EBF908B1FCF771FF10BD00000038014091
:1049E0003403002010B50B480B4908604FF41650F3
:1049F0004860002108488160C16001610C2141616B
:104A000000218161C161FFF7CFF908B1FCF755FFC3
:104A100010BD0000004400407C03002000BFFEE702
:104A200000BFFEE710B54FF480610348FBF722FC9E
:104A300000F0E0F810BD00004029002008B500207B
:104A4000009004E09DF80000401CC0B200909DF86A
:104A500000000228F6DB08BD4FF4807002490860B0
:104A60004000086070470000100C014070B504461B
:104A700000251BE004F0800020B14FF400701649BF
:104A8000086003E04FF00070134908606006040EF0
:104A9000FFF7D4FF4FF480700F490860FFF7CEFF97
:104AA0004FF080700C490860681CC5B2082DE1DB2E
:104AB0004FF4007008490860FFF7C0FF4FF48070A2
:104AC00005490860FFF7BAFF4FF08070024908609F
:104AD000FFF7B4FF70BD0000100C014010B54FF49B
:104AE00000700949086040100860FFF7A7FF4FF009
:104AF000007005490860FFF7A1FF4FF08070024980
:104B00000860FFF79BFF10BD100C014010B54FF07F
:104B100000700649086040140860FFF78FFF4FF4EB
:104B2000007002490860FFF789FF10BD100C0140BA
:104B300008B50020009002E00098401C0090274932
:104B400000988842F8D3FFF787FFAE2000F035F9D0
:104B5000D52000F032F9802000F02FF9A82000F0D5
:104B60002CF93F2000F029F9D32000F026F900208D
:104B700000F023F9402000F020F9A12000F01DF9F9
:104B8000C82000F01AF9DA2000F017F9122000F01E
:104B900014F9812000F011F9CF2000F00EF9D9208E
:104BA00000F00BF9F12000F008F9DB2000F005F926
:104BB000302000F002F9A42000F0FFF8A62000F059
:104BC000FCF88D2000F0F9F8142000F0F6F8AF2082
:104BD00000F0F3F8FFF726FF08BD000000350C00D9
:104BE00010B50246012000E050430B1EA1F1010167
:104BF000FAD110BD10B5002411E044F0B00000F06F
:104C0000DCF8102000F0D9F8002000F0D6F80549B3
:104C100001EBC410802100F0E0F8601CC4B2082C45
:104C2000EBDB10BD402900202DE9F041012805DB18
:104C3000042803DC012901DB102901DDBDE8F08136
:104C4000202A01DB7E2A00DD2022431E5B061C0E8B
:104C50004B1EDB061D0EA2F12003DEB200230DE089
:104C6000134F07EB0617FF5CDFF848C00CEBC41CC2
:104C700005EB03080CF808705F1CFBB2082BEFDB98
:104C8000002311E00A4F07EB061C03F108071CF88C
:104C900007C0DFF82080671C08EBC71705EB030887
:104CA00007F808C05F1CFBB2082BEBDB00BFC5E7B1
:104CB00028AF0008402900202DE9F04780460E4625
:104CC00017461C460CB10A2C01DDBDE8F087002513
:104CD00019E07019102800DD17E0601B411E0A2042
:104CE000FFF77EFFB7FBF0F00A21B0FBF1F201FB0A
:104CF000120000F130097019C1B24A464046FFF770
:104D000093FF681CC5B2A542E3DB00BF00BFDCE730
:104D10002DE9F04781460F4616461C460CB10A2C79
:104D200001DDBDE8F087002E06DB2B223946484620
:104D3000FFF77AFFB04606E02D2239464846FFF7D6
:104D400073FFC6F1000800251BE07819401C1028ED
:104D500000DD18E0601B411E0A20FFF741FFB8FB91
:104D6000F0F00A21B0FBF1F201FB120000F1300A71
:104D70007819401CC1B252464846FFF755FF681CDF
:104D8000C5B2A542E1DB00BF00BFCAE7F0B50746E8
:104D90000D46164600240BE02819102800DD0AE015
:104DA000325D2819C1B23846FFF73EFF601CC4B21D
:104DB000305D0028F0D100BFF0BD10B50446FFF70C
:104DC0008DFE7820FFF752FE0020FFF74FFE2046B1
:104DD000FFF74CFEFFF79AFE10BD70B504460D4676
:104DE000FFF77CFE7820FFF741FE4020FFF73EFEF4
:104DF00003E014F8010BFFF739FE281EA5F10101AD
:104E00008DB2F6D1FFF782FE70BD000008B50849EB
:104E10000968C9084FF47A72B1FBF2F1414300917D
:104E200000BF00BF00994A1E00920029F9D108BDB9
:104E300010000020F8B504460E4615463346012200
:104E400002212046009500F017F828B1606D40F06F
:104E5000200060650320F8BD3346002280212046F3
:104E6000009500F009F828B1606D40F02000606501
:104E70000320F0E70020EEE72DE9F84F04460D4649
:104E800090461E46DDF82890FCF75AFFA0EB09007B
:104E9000371AFCF755FF82462C480068C0F3CB3028
:104EA0007843009045E0701C002842D0FCF748FF92
:104EB000A0EB0A00B84200D2A7BB2068406820F0EF
:104EC000E000216848606068B0F5827F0DD1A0687D
:104ED000B0F5004F03D0A068B0F5806F05D1206811
:104EE000006820F0400021680860A06AB0F5005F0B
:104EF0000DD100BF2068006820F4005021680860D0
:104F00002068006840F400502168086000BF01205C
:104F100084F8510000BF002084F8500000BF032037
:104F2000BDE8F88FFFE7009800B900270098401E01
:104F30000090206880682840A84201D1012000E04C
:104F400000204045AFD10020EAE70000100000201B
:104F500000BF012002F005FBFBE710B54FF0E02099
:104F6000006905F001FD012801D004F0D1FF10BD5A
:104F700000B58FB0282105A8FBF77CF914216846FD
:104F8000FBF778F9012005900004069000200790B7
:104F90000120099002200C90C1030D914FF4E01103
:104FA0000E9105A8FDF7AAFC08B1FCF786FC0F20BE
:104FB000009002200190002002904FF48060039046
:104FC0000020049002216846FDF752FB08B1FCF76F
:104FD00074FC0FB000BD704710B50248FEF711FB1E
:104FE00010BD0000C403002010B502681C4B98429D
:104FF00008D0B0F1804F05D01A4B984202D01A4B1E
:10500000984203D122F070024B681A43144B984225
:1050100008D0B0F1804F05D0124B984202D0124B0D
:10502000984203D122F44072CB681A4322F08003E5
:105030004C6943EA040202608B68C3620B688362B6
:10504000074B984201D10B69036301234361036954
:1050500003F001031BB1036923F00103036110BDD9
:10506000002C0140000400400008004030B501F071
:105070001F05012404FA05F3046A9C430462046AD0
:1050800001F01F0502FA05F52C43046230BD30B56E
:105090000C46816821F47F4142EA032525432943D8
:1050A000816030BD0A46816821F0700142F007033B
:1050B000194381607047000030B5026A056A25F027
:1050C000010505624368846924F0700424F0030438
:1050D0000D682C4322F002028D682A430D4DA84230
:1050E00006D100BF22F00802CD682A4322F0040254
:1050F000084DA84207D123F4807323F400734D694F
:105100002B438D692B43436084614D684563026284
:1051100030BD0000002C014030B5026A056A25F060
:10512000100505624368846924F4E04424F4407463
:105130000D6844EA052422F020028D6842EA051237
:105140000E4DA84207D100BF22F08002CD6842EA8E
:10515000051222F04002094DA84209D123F48063D0
:1051600023F400634D6943EA85038D6943EA8503AF
:10517000436084614D688563026230BD002C01404C
:1051800030B5026A056A25F4807505624368C46912
:1051900024F0700424F003040D682C4322F4007200
:1051A0008D6842EA05220F4DA84207D100BF22F4C4
:1051B0000062CD6842EA052222F48062094DA842CD
:1051C00009D123F4805323F400534D6943EA0513B6
:1051D0008D6943EA05134360C4614D68C56302628B
:1051E00030BD0000002C014030B5036A056A25F48B
:1051F000805505624468C26922F4E04222F440729C
:105200000D6842EA052223F400538D6843EA053312
:10521000064DA84204D124F480444D6944EA851423
:105220004460C2614D680564036230BD002C0140DA
:1052300030B50B461446026A056A25F00105056281
:10524000816921F0F00141EA041122F00A021A43B7
:105250008161026230BD30B50B461446026A056AB0
:1052600025F010050562816921F4704141EA04319D
:1052700022F0A00242EA03128161026230BD70B5E1
:1052800005466C6A0020E085E0842046FEF718FCA5
:1052900070BD00BF00BF02680C3252E8002F22F43C
:1052A000907102680C3242E80013002BF3D100BF6A
:1052B00000BF00BF0268143252E8002F22F0010143
:1052C0000268143242E80013002BF3D100BF016BD7
:1052D00001290ED100BF00BF02680C3252E8002F36
:1052E00022F0100102680C3242E80013002BF3D1C7
:1052F00000BF202180F8421000210163704710B5E3
:1053000004462068C06820F040002168C860202062
:1053100084F841002046FEF7AAFE002010BDF8B533
:10532000044694F84200222875D1A068B0F5805F49
:105330000CD1206950B90025A66A20684068C0F3E6
:1053400008003080A06A801CA06215E0A56A0026D3
:10535000A068B0F5805F03D0A06828B9206918B9AB
:1053600020684068287004E02068406800F07F00F2
:105370002870A06A401CA062E08D401E80B2E085CB
:10538000002846D12068C06820F020002168C8604D
:105390002068C06820F480702168C8602068406977
:1053A00020F0010021684861202084F8420000209C
:1053B0006063206B012826D10020206300BF00BF5E
:1053C00021680C3151E8001F21F0100021680C31D8
:1053D00041E80002002AF3D100BF2068006800F015
:1053E000100010280AD100BF00200090206800683B
:1053F000009020684068009000BF00BFA18D20464B
:10540000FEF75DFB02E02046FEF7A8FD0020F8BD98
:1054100001E00020FBE70220F9E7000070B5044638
:105420002168096921F44051E26811432268116141
:105430002269A1681143626941EA02052168C968CD
:1054400041F20C62914329432268D1602168496985
:1054500021F44071A2691143226851612D4A2168EB
:10546000914202D1FDF702FA01E0FDF7EFF900EBFE
:10547000C00101EB001162689200B1FBF2F100EB98
:10548000C00202EB001263689B00B2FBF3F26423DC
:10549000B2FBF3F202EBC20303EB0212A1EB8201B7
:1054A000322202EB01116422B1FBF2F101F0F001B2
:1054B00000EBC00202EB001263689B00B2FBF3F248
:1054C0006423B2FBF3F201EB021200EBC00101EB2B
:1054D000001163689B00B1FBF3F100EBC00303EB29
:1054E00000136668B600B3FBF6F36426B3FBF6F36D
:1054F00003EBC30606EB0313A1EB8301322303EB9B
:1055000001116423B1FBF3F101F00F011144226892
:10551000916070BD0038014010B5034699629A85CC
:10552000DA8500205864222083F84200186928B1E7
:105530001868C06840F480701C68E06018684069B2
:1055400040F001001C6860611868C06840F02000ED
:105550001C68E060002010BD014691F84100212840
:1055600028D18868B0F5805F0BD1086948B90A6A0C
:105570001088C0F308000B685860086A801C086235
:1055800005E00B6A581C086218780B685860C88CD4
:10559000401E80B2C88458B90868C06820F08000F6
:1055A0000B68D8600868C06840F040000B68D8609D
:1055B000002070470220FCE72DE9F84304460D4621
:1055C00017469846089E31E0701C70B3FCF7B8FB94
:1055D000A0EB0800B04200D816B90320BDE8F8835C
:1055E0002068C06800F00400F8B1802D1ED0402D66
:1055F0001CD020680068C0F3C000B0B100BF00201C
:10560000009020680068009020684068009000BF0B
:1056100000BF2046FFF73DFE0820606400BF002069
:1056200084F8400000BF0120D8E7FFE72068006849
:105630002840A84201D1012000E00020B842C3D098
:105640000020CBE710B50248FEF73CFA10BD000081
:105650003403002010B50248FEF734FA10BD0000F4
:105660007C03002000BFFEE70FB4054B10B503A973
:10567000044A029800F0E8F910BC5DF814FB000041
:10568000F9700008A8010020490050EAC12018BFA5
:1056900004204A0D18BF40F0010040F2FF72B2EB47
:1056A000515F08BF40F00200012808BF0520704785
:1056B00002480068C0F30220704700000CED00E0D3
:1056C00010B5002804DB0A07130E054A135406E040
:1056D0000A07140E034A00F00F031B1FD45410BD19
:1056E00000E400E018ED00E000487047AC01002045
:1056F000EFF3058070472DE9F0414F1E00EBC70125
:105700000446D1E9000115461E4637F006020DD0C9
:105710002A463346FAF79CFF7F1E04EBC703D3E902
:105720000023FAF7EEFE37F00602F1D1022F25D062
:10573000042F13D0062F18BFBDE8F0812A46334648
:10574000FAF786FFD4E90A23FAF7DBFE2A46334646
:10575000FAF77EFFD4E90823FAF7D3FE2A46334648
:10576000FAF776FFD4E90623FAF7CBFE2A4633464A
:10577000FAF76EFFD4E90423FAF7C3FE2A4633464C
:10578000FAF766FFD4E90223FAF7BBFE2A4633464E
:10579000FAF75EFFD4E90023BDE8F041FAF7B1BEA5
:1057A0000122FBF799BAFAF7ACBE0000024A0020CA
:1057B0001107FBF791BA000001FDFFFF10B5044689
:1057C000D1E9000100F002F8206010BDF8B50446F0
:1057D0000D466A4601F09EFC00987E30009000283D
:1057E0001EDC0022134620462946FBF771F817D02D
:1057F000002140F60800FBF757FC064620462946E4
:10580000FBF77EF8044640F6080006EA0001FBF7C5
:105810004BFC34F0004004BF022000F045F829E0C2
:105820000098FF2828DB00210846FBF73DFC00F428
:1058300040060022134620462946FBF7C7F98CBFD5
:1058400000250125022000F02FF84FF0FF4446B15B
:10585000002D0CBF4FF400004FF48000B04218BF81
:10586000084C04210846FBF71FFC002D04BF84F000
:105870000040F8BD2046F8BD20462946BDE8F84066
:10588000FBF73EB8FFFF7F7F02E008C8121F08C188
:10589000002AFAD170477047002001E001C1121FB1
:1058A000002AFBD1704700000149086070470000E2
:1058B000AC0100202DE9FF5F82B00021DDE904305A
:1058C000020DDDF840B0034318D044F61050A2F2A8
:1058D000FF3242431514119801281FD0A5EB0B008D
:1058E000401C5FEA000A4FF000064E4FDFF8389187
:1058F000B046504615D5CAF1000413E011980124B2
:105900004AA3012801D16FEA0B010298119AC0E95C
:105910000031C0E9024206B0BDE8F09FCBF10000C3
:10592000DFE704460021404A491842EB0450CDE924
:10593000001012E0E00707D032463B464046494699
:10594000FAF786FE8046894632463B46104619469F
:10595000FAF77EFE06460F466410002CEAD1DDE918
:105960000401DDE90023BAF1000F06DAFAF770FE50
:1059700042464B46FAF76CFE05E0FAF7DBFE42467C
:105980004B46FAF7D7FE04460E460022284BFBF79B
:105990001DF903D84FF0FF30014607E00022254BE8
:1059A00020463146FAF7ADFDFAF766FF102409E00C
:1059B000002C0ADB0A220023FAF702FC039B303298
:1059C0001A55641E50EA0102F2D1641C039AC4F114
:1059D00011031444119A012A03D0012208430DD166
:1059E0000AE0084304D000204FF0110B119072E739
:1059F000A3EB0B056D1E0DE05B4504DD4FF00002CF
:105A000005F1010504E003DA4FF00002A5F10105FC
:105A1000002AECD002981199C0E90231C0E9004592
:105A200079E70000000014400000F03F3000000063
:105A30000000F0430000E03F30380A2801D2012086
:105A400070470020704700002DE9FF4F95B09A463F
:105A5000884606460025EEE1252877D10024274612
:105A6000F94A0121039400E0044316F8013F203B6A
:105A700001FA03F01042F7D130782A2811D06FF0E4
:105A80002F033078A0F13002092A16D8039A44F087
:105A9000020402EB820203EB42021044761C0390E4
:105AA000EFE758F8042B0392002A03DA504244F43B
:105AB0000054039044F00204761C30782E2816D14E
:105AC00016F8010F44F004042A280DD06FF02F02BD
:105AD0003078A0F13003092B09D807EB870302EBDC
